:0300000002087A79
:0C087A00787FE4F6D8FD75810702086164
:03000300020800F0
:10080000C0E0C0F0C083C082C0D075D000C000C0BE
:1008100001C002C003C004C005C006C007B2947F77
:10082000F47E01120841D007D006D005D004D003D1
:10083000D002D001D000D0D0D082D083D0F0D0E090
:010840003285
:10084100E4FDFCC3ED9FEC9E5015E4FBFA0BBB00ED
:0F085100010AEB64714A70F50DBD00010C80E4E3
:010860002275
:10086100D2B2C294C28875A881D2937FF47E01125C
:090871000841C29312084180F015
:00000001FF
